{
  "_format": "hh-sol-artifact-1",
  "contractName": "WavePortal",
  "sourceName": "contracts/WavePortal.sol",
  "abi": [
    {
      "inputs": [],
      "stateMutability": "payable",
      "type": "constructor"
    },
    {
      "anonymous": false,
      "inputs": [
        {
          "indexed": true,
          "internalType": "address",
          "name": "from",
          "type": "address"
        },
        {
          "indexed": false,
          "internalType": "uint256",
          "name": "timestamp",
          "type": "uint256"
        },
        {
          "indexed": false,
          "internalType": "string",
          "name": "message",
          "type": "string"
        }
      ],
      "name": "NewWave",
      "type": "event"
    },
    {
      "inputs": [],
      "name": "getAllWaves",
      "outputs": [
        {
          "components": [
            {
              "internalType": "address",
              "name": "waver",
              "type": "address"
            },
            {
              "internalType": "string",
              "name": "message",
              "type": "string"
            },
            {
              "internalType": "uint256",
              "name": "timestamp",
              "type": "uint256"
            }
          ],
          "internalType": "struct WavePortal.Wave[]",
          "name": "",
          "type": "tuple[]"
        }
      ],
      "stateMutability": "view",
      "type": "function"
    },
    {
      "inputs": [],
      "name": "getCurrentRewardAmountPerWave",
      "outputs": [
        {
          "internalType": "uint256",
          "name": "",
          "type": "uint256"
        }
      ],
      "stateMutability": "view",
      "type": "function"
    },
    {
      "inputs": [],
      "name": "getTotalWaves",
      "outputs": [
        {
          "internalType": "uint256",
          "name": "",
          "type": "uint256"
        }
      ],
      "stateMutability": "view",
      "type": "function"
    },
    {
      "inputs": [
        {
          "internalType": "uint256",
          "name": "amount",
          "type": "uint256"
        }
      ],
      "name": "setRewardAmountPerWave",
      "outputs": [],
      "stateMutability": "nonpayable",
      "type": "function"
    },
    {
      "inputs": [
        {
          "internalType": "string",
          "name": "_message",
          "type": "string"
        }
      ],
      "name": "wave",
      "outputs": [],
      "stateMutability": "nonpayable",
      "type": "function"
    }
  ],
  "bytecode": "0x608060405233600260006101000a81548173ffffffffffffffffffffffffffffffffffffffff021916908373ffffffffffffffffffffffffffffffffffffffff1602179055506110e1806100546000396000f3fe608060405234801561001057600080fd5b50600436106100575760003560e01c806338af1f6b1461005c578063449d46c0146100785780639a2cdc0814610094578063bd43a908146100b2578063d326ef27146100d0575b600080fd5b610076600480360381019061007191906109aa565b6100ee565b005b610092600480360381019061008d9190610969565b61027f565b005b61009c610581565b6040516100a99190610ce3565b60405180910390f35b6100ba61058a565b6040516100c79190610bec565b60405180910390f35b6100d86106db565b6040516100e59190610ce3565b60405180910390f35b600260009054906101000a900473ffffffffffffffffffffffffffffffffffffffff1673ffffffffffffffffffffffffffffffffffffffff163373ffffffffffffffffffffffffffffffffffffffff16141561023c576101bb6040518060400160405280601a81526020017f72657761726420616d6f756e74207573656420746f2062653a200000000000008152506001546040518060400160405280600481526020017f20776569000000000000000000000000000000000000000000000000000000008152506106e5565b806001819055506102376040518060400160405280601e81526020017f55706461746564207468652072657761726420616d6f756e7420746f3a200000815250826040518060400160405280600481526020017f20776569000000000000000000000000000000000000000000000000000000008152506106e5565b61027c565b61027b6040518060400160405280601581526020017f596f7520617265206e6f7420746865206f776e6572000000000000000000000081525082610784565b5b50565b42610384600460003373ffffffffffffffffffffffffffffffffffffffff1673ffffffffffffffffffffffffffffffffffffffff168152602001908152602001600020546102cd9190610df5565b1061030d576040517f08c379a000000000000000000000000000000000000000000000000000000000815260040161030490610c83565b60405180910390fd5b42600460003373ffffffffffffffffffffffffffffffffffffffff1673ffffffffffffffffffffffffffffffffffffffff1681526020019081526020016000208190555060016000808282546103639190610df5565b92505081905550600360405180606001604052803373ffffffffffffffffffffffffffffffffffffffff16815260200183815260200142815250908060018154018082558091505060019003906000526020600020906003020160009091909190915060008201518160000160006101000a81548173ffffffffffffffffffffffffffffffffffffffff021916908373ffffffffffffffffffffffffffffffffffffffff1602179055506020820151816001019080519060200190610429929190610849565b506040820151816002015550503373ffffffffffffffffffffffffffffffffffffffff167f5f7e16dc676677766a70e9c5628aa6c54ddb8b6e5188e2ae1e1f17f1ffbea716428360405161047e929190610cfe565b60405180910390a260006001549050478111156104d0576040517f08c379a00000000000000000000000000000000000000000000000000000000081526004016104c790610ca3565b60405180910390fd5b60003373ffffffffffffffffffffffffffffffffffffffff16826040516104f690610bd7565b60006040518083038185875af1925050503d8060008114610533576040519150601f19603f3d011682016040523d82523d6000602084013e610538565b606091505b505090508061057c576040517f08c379a000000000000000000000000000000000000000000000000000000000815260040161057390610cc3565b60405180910390fd5b505050565b60008054905090565b60606003805480602002602001604051908101604052809291908181526020016000905b828210156106d257838290600052602060002090600302016040518060600160405290816000820160009054906101000a900473ffffffffffffffffffffffffffffffffffffffff1673ffffffffffffffffffffffffffffffffffffffff1673ffffffffffffffffffffffffffffffffffffffff16815260200160018201805461063790610ec9565b80601f016020809104026020016040519081016040528092919081815260200182805461066390610ec9565b80156106b05780601f10610685576101008083540402835291602001916106b0565b820191906000526020600020905b81548152906001019060200180831161069357829003601f168201915b50505050508152602001600282015481525050815260200190600101906105ae565b50505050905090565b6000600154905090565b61077f8383836040516024016106fd93929190610c3e565b6040516020818303038152906040527fa3f5c739000000000000000000000000000000000000000000000000000000007bffffffffffffffffffffffffffffffffffffffffffffffffffffffff19166020820180517bffffffffffffffffffffffffffffffffffffffffffffffffffffffff8381831617835250505050610820565b505050565b61081c828260405160240161079a929190610c0e565b6040516020818303038152906040527f9710a9d0000000000000000000000000000000000000000000000000000000007bffffffffffffffffffffffffffffffffffffffffffffffffffffffff19166020820180517bffffffffffffffffffffffffffffffffffffffffffffffffffffffff8381831617835250505050610820565b5050565b60008151905060006a636f6e736f6c652e6c6f679050602083016000808483855afa5050505050565b82805461085590610ec9565b90600052602060002090601f01602090048101928261087757600085556108be565b82601f1061089057805160ff19168380011785556108be565b828001600101855582156108be579182015b828111156108bd5782518255916020019190600101906108a2565b5b5090506108cb91906108cf565b5090565b5b808211156108e85760008160009055506001016108d0565b5090565b60006108ff6108fa84610d53565b610d2e565b90508281526020810184848401111561091757600080fd5b610922848285610e87565b509392505050565b600082601f83011261093b57600080fd5b813561094b8482602086016108ec565b91505092915050565b60008135905061096381611094565b92915050565b60006020828403121561097b57600080fd5b600082013567ffffffffffffffff81111561099557600080fd5b6109a18482850161092a565b91505092915050565b6000602082840312156109bc57600080fd5b60006109ca84828501610954565b91505092915050565b60006109df8383610b69565b905092915050565b6109f081610e4b565b82525050565b6000610a0182610d94565b610a0b8185610db7565b935083602082028501610a1d85610d84565b8060005b85811015610a595784840389528151610a3a85826109d3565b9450610a4583610daa565b925060208a01995050600181019050610a21565b50829750879550505050505092915050565b6000610a7682610d9f565b610a808185610dd3565b9350610a90818560208601610e96565b610a9981610fb9565b840191505092915050565b6000610aaf82610d9f565b610ab98185610de4565b9350610ac9818560208601610e96565b610ad281610fb9565b840191505092915050565b6000610aea600f83610de4565b9150610af582610fca565b602082019050919050565b6000610b0d603483610de4565b9150610b1882610ff3565b604082019050919050565b6000610b30602783610de4565b9150610b3b82611042565b604082019050919050565b6000610b53600083610dc8565b9150610b5e82611091565b600082019050919050565b6000606083016000830151610b8160008601826109e7565b5060208301518482036020860152610b998282610a6b565b9150506040830151610bae6040860182610bb9565b508091505092915050565b610bc281610e7d565b82525050565b610bd181610e7d565b82525050565b6000610be282610b46565b9150819050919050565b60006020820190508181036000830152610c0681846109f6565b905092915050565b60006040820190508181036000830152610c288185610aa4565b9050610c376020830184610bc8565b9392505050565b60006060820190508181036000830152610c588186610aa4565b9050610c676020830185610bc8565b8181036040830152610c798184610aa4565b9050949350505050565b60006020820190508181036000830152610c9c81610add565b9050919050565b60006020820190508181036000830152610cbc81610b00565b9050919050565b60006020820190508181036000830152610cdc81610b23565b9050919050565b6000602082019050610cf86000830184610bc8565b92915050565b6000604082019050610d136000830185610bc8565b8181036020830152610d258184610aa4565b90509392505050565b6000610d38610d49565b9050610d448282610efb565b919050565b6000604051905090565b600067ffffffffffffffff821115610d6e57610d6d610f8a565b5b610d7782610fb9565b9050602081019050919050565b6000819050602082019050919050565b600081519050919050565b600081519050919050565b6000602082019050919050565b600082825260208201905092915050565b600081905092915050565b600082825260208201905092915050565b600082825260208201905092915050565b6000610e0082610e7d565b9150610e0b83610e7d565b9250827fffffffffffffffffffffffffffffffffffffffffffffffffffffffffffffffff03821115610e4057610e3f610f2c565b5b828201905092915050565b6000610e5682610e5d565b9050919050565b600073ffffffffffffffffffffffffffffffffffffffff82169050919050565b6000819050919050565b82818337600083830152505050565b60005b83811015610eb4578082015181840152602081019050610e99565b83811115610ec3576000848401525b50505050565b60006002820490506001821680610ee157607f821691505b60208210811415610ef557610ef4610f5b565b5b50919050565b610f0482610fb9565b810181811067ffffffffffffffff82111715610f2357610f22610f8a565b5b80604052505050565b7f4e487b7100000000000000000000000000000000000000000000000000000000600052601160045260246000fd5b7f4e487b7100000000000000000000000000000000000000000000000000000000600052602260045260246000fd5b7f4e487b7100000000000000000000000000000000000000000000000000000000600052604160045260246000fd5b6000601f19601f8301169050919050565b7f77616974203135204d696e757465730000000000000000000000000000000000600082015250565b7f547279696e6720746f207769746864726177206d6f7265206d6f6e657920746860008201527f616e2074686520636f6e7472616374206861732e000000000000000000000000602082015250565b7f4661696c656420746f207769746864726177206d6f6e65792066726f6d20636f60008201527f6e74726163742e00000000000000000000000000000000000000000000000000602082015250565b50565b61109d81610e7d565b81146110a857600080fd5b5056fea26469706673582212207e16ce4fc20450464e567c7beadb9ebc0b805d990031e2bf05ffae1c9a172c8264736f6c63430008040033",
  "linkReferences": {},
  "deployedLinkReferences": {}
}